:100000000C945A000C946F000C946F000C946F00C9
:100010000C946F000C946F000C946F000C946F00A4
:100020000C946F000C946F000C946F000C946F0094
:100030000C946F000C946F000C946F000C946F0084
:100040000C946F000C946F000C946F000C946F0074
:100050000C946F000C946F000C946F000C946F0064
:100060000C946F000C946F000C946F000C946F0054
:100070000C946F000C946F000C946F000C946F0044
:100080000C946F000C946F000C946F000C946F0034
:100090000C946F000C946F000C946F000C946F0024
:1000A0000C946F000C946F000C946F000C946F0014
:1000B0000C946F0011241FBECFEFD8E0DEBFCDBF80
:1000C00011E0A0E0B1E0EEE6F5E002C005900D928F
:1000D000AE3BB107D9F70E94F3000C94B5020C9423
:1000E00000000F931F93CF93DF93CDB7DEB72A970E
:1000F0000FB6F894DEBF0FBECDBF09831A832B83E2
:100100003C834D835E836F83788789879A874A8192
:100110005B81AE81BF8171111BC0692F81E090E0CE
:1001200002C0880F991F0A95E2F7382F30952C915D
:1001300023232C93611105C0FA0180813823308379
:1001400022C0613001F5FA019081892B80831BC0A8
:100150007130C9F4398581E090E002C0880F991FA1
:100160000A95E2F72C91282B2C93311106C080952B
:10017000FA0190818923808306C0313021F4FA018D
:100180009081892B80832A960FB6F894DEBF0FBE2C
:10019000CDBFDF91CF911F910F9108950F931F93C2
:1001A000CF93DF93CDB7DEB72A970FB6F894DEBFB3
:1001B0000FBECDBF1A832B83EA81FB8181E090E0E3
:1001C00002C0880F991F0A95E2F7908189278083E2
:1001D0002A960FB6F894DEBF0FBECDBFDF91CF9148
:1001E0001F910F9108950091B4011091B5012091D4
:1001F000B6013091B7014091B8015091B9016091B9
:10020000BA017091BB018091BC019091BD010E9427
:1002100071000091AA011091AB012091AC013091C5
:10022000AD014091AE015091AF016091B00170916C
:10023000B1018091B2019091B3010E9471000091CF
:10024000A0011091A1012091A2013091A301409140
:10025000A4015091A5016091A6017091A701809120
:10026000A8019091A9010E9471000091960110913E
:100270009701209198013091990140919A015091F4
:100280009B0160919C0170919D0180919E019091D4
:100290009F010E94710000918C0110918D012091AD
:1002A0008E0130918F0140919001509191016091A8
:1002B00092017091930180919401909195010E9417
:1002C000710000918201109183012091840130918D
:1002D000850140918601509187016091880170915C
:1002E000890180918A0190918B010E947100009197
:1002F00078011091790120917A0130917B01409130
:100300007C0150917D0160917E0170917F0180910F
:100310008001909181010E94710000916E01109105
:100320006F012091700130917101409172015091E3
:1003300073016091740170917501809176019091C3
:1003400077010E9471000091640110916501209174
:100350006601309167014091680150916901609197
:100360006A0170916B0180916C0190916D010E9406
:10037000710000915A0110915B0120915C01309154
:100380005D0140915E0150915F016091600170914B
:10039000610180916201909163010E94710000915E
:1003A000500110915101209152013091530140911F
:1003B00054015091550160915601709157018091FF
:1003C0005801909159010E947100009146011091CD
:1003D0004701209148013091490140914A015091D3
:1003E0004B0160914C0170914D0180914E019091B3
:1003F0004F010E94710000913C0110913D0120913C
:100400003E0130913F014091400150914101609186
:1004100042017091430180914401909145010E94F5
:10042000710000913201109133012091340130911B
:10043000350140913601509137016091380170913A
:10044000390180913A0190913B010E947100009125
:1004500028011091290120912A0130912B0140910E
:100460002C0150912D0160912E0170912F018091EE
:100470003001909131010E94710000911E01109194
:100480001F012091200130912101409122015091C2
:1004900023016091240170912501809126019091A2
:1004A00027010E9471000091140110911501209103
:1004B0001601309117014091180150911901609176
:1004C0001A0170911B0180911C0190911D010E94E5
:1004D000710000910A0110910B0120910C013091E3
:1004E0000D0140910E0150910F016091100170912A
:1004F000110180911201909113010E9471000091ED
:1005000000011091010120910201309103014091FD
:1005100004015091050160910601709107018091DD
:100520000801909109010E947100009178011091D9
:10053000790120917A0130917B0140917C015091A9
:100540007D0160917E0170917F0180918001909189
:1005500081010E94CE002FEF89E698E12150804072
:0E0560009040E1F700C00000E0CFF894FFCF1C
:10056E00072B0029002A00010000062B0029002A73
:10057E0000010000052B0029002A00010000042BB9
:10058E000029002A00010000032B0029002A000187
:10059E000000022B0029002A000100000528002679
:1005AE00002700000000042800260027000000009D
:1005BE00032800260027000000000228002600273E
:1005CE00000000000128002600270000000000287F
:1005DE00002600270000000007250023002400014C
:1005EE00010005250023002400000001042500233E
:1005FE000024000101000325002300240000000058
:10060E000225002300240000000101250023002400
:0E061E00000000010025002300240000000160
:00000001FF
